{
  "contractName": "FL_simple",
  "abi": [
    {
      "inputs": [],
      "name": "data",
      "outputs": [
        {
          "internalType": "uint256",
          "name": "",
          "type": "uint256"
        }
      ],
      "stateMutability": "view",
      "type": "function"
    },
    {
      "inputs": [
        {
          "internalType": "uint256",
          "name": "_data",
          "type": "uint256"
        }
      ],
      "name": "update",
      "outputs": [],
      "stateMutability": "nonpayable",
      "type": "function"
    },
    {
      "inputs": [],
      "name": "retrieve",
      "outputs": [
        {
          "internalType": "uint256",
          "name": "d",
          "type": "uint256"
        }
      ],
      "stateMutability": "view",
      "type": "function"
    }
  ],
  "bytecode": "0x608060405234801561001057600080fd5b5060f38061001f6000396000f3fe6080604052348015600f57600080fd5b5060043610603c5760003560e01c80632e64cec114604157806373d4a13a14605d57806382ab890a146079575b600080fd5b604760a4565b6040518082815260200191505060405180910390f35b606360ad565b6040518082815260200191505060405180910390f35b60a260048036036020811015608d57600080fd5b810190808035906020019092919050505060b3565b005b60008054905090565b60005481565b806000819055505056fea26469706673582212204a6a42ed76c6467c3d0bc48d2747a6e2a767e110d9bebd4f1eb73619ba3515a364736f6c63430007060033",
  "immutableReferences": {},
  "source": "\npragma solidity >=0.7.0 <0.8.0;\n\n\ncontract FL_simple{\n    uint public data;\n\n    function update(uint _data) public{\n        data=_data;\n    }\n\n    function retrieve() public view returns(uint d) {\n        return data;\n    }\n}",
  "sourcePath": "/home/debian/ethereum-tests/truffleproject/contracts/FL_simple.sol",
  "compiler": {
    "name": "solc",
    "version": "0.7.6+commit.7338295f.Emscripten.clang"
  },
  "schemaVersion": "3.3.4",
  "updatedAt": "2021-03-07T12:19:29.679Z",
  "devdoc": {
    "kind": "dev",
    "methods": {},
    "version": 1
  },
  "userdoc": {
    "kind": "user",
    "methods": {},
    "version": 1
  }
}