{
  "contractName": "FL_simulation",
  "abi": [
    {
      "inputs": [],
      "stateMutability": "nonpayable",
      "type": "constructor"
    },
    {
      "inputs": [],
      "name": "ID_newestweights",
      "outputs": [
        {
          "internalType": "uint256",
          "name": "",
          "type": "uint256"
        }
      ],
      "stateMutability": "view",
      "type": "function",
      "constant": true
    },
    {
      "inputs": [
        {
          "internalType": "uint256",
          "name": "",
          "type": "uint256"
        }
      ],
      "name": "allweights",
      "outputs": [
        {
          "internalType": "uint256",
          "name": "ID",
          "type": "uint256"
        },
        {
          "internalType": "address",
          "name": "initiator",
          "type": "address"
        },
        {
          "internalType": "uint256",
          "name": "data",
          "type": "uint256"
        }
      ],
      "stateMutability": "view",
      "type": "function",
      "constant": true
    },
    {
      "inputs": [
        {
          "internalType": "uint256",
          "name": "_data",
          "type": "uint256"
        }
      ],
      "name": "updateweights",
      "outputs": [
        {
          "internalType": "bool",
          "name": "sufficient",
          "type": "bool"
        }
      ],
      "stateMutability": "nonpayable",
      "type": "function"
    },
    {
      "inputs": [],
      "name": "getweights",
      "outputs": [
        {
          "internalType": "uint256",
          "name": "",
          "type": "uint256"
        }
      ],
      "stateMutability": "view",
      "type": "function",
      "constant": true
    }
  ],
  "bytecode": "0x608060405234801561001057600080fd5b5060016000819055506102ba806100286000396000f3fe608060405234801561001057600080fd5b506004361061004c5760003560e01c806306779ab514610051578063187587131461006f5780631922b23d1461008d5780632b81704e146100d1575b600080fd5b610059610137565b6040518082815260200191505060405180910390f35b61007761015f565b6040518082815260200191505060405180910390f35b6100b9600480360360208110156100a357600080fd5b8101908080359060200190929190505050610165565b60405180821515815260200191505060405180910390f35b6100fd600480360360208110156100e757600080fd5b810190808035906020019092919050505061022a565b604051808481526020018373ffffffffffffffffffffffffffffffffffffffff168152602001828152602001935050505060405180910390f35b600060016000548154811061014857fe5b906000526020600020906003020160020154905090565b60005481565b6000600160005401600081905550604051806060016040528060005481526020013373ffffffffffffffffffffffffffffffffffffffff168152602001838152506001600054815481106101b557fe5b90600052602060002090600302016000820151816000015560208201518160010160006101000a81548173ffffffffffffffffffffffffffffffffffffffff021916908373ffffffffffffffffffffffffffffffffffffffff1602179055506040820151816002015590505060019050919050565b6001818154811061023a57600080fd5b90600052602060002090600302016000915090508060000154908060010160009054906101000a900473ffffffffffffffffffffffffffffffffffffffff1690806002015490508356fea2646970667358221220e223744b3c419130cfc4694174920ccb7170e8ddee0f0842c21022d3fe1e68be64736f6c63430007060033",
  "immutableReferences": {},
  "source": "\npragma solidity >=0.7.0 <0.8.0;\n\n\n\ncontract FL_simulation {\n    \n    struct Weights{\n        uint ID;\n        address initiator;\n        uint data;\n    }\n\n    uint public ID_newestweights;\n    \n    Weights[] public allweights;\n    constructor() {\n        ID_newestweights=1;\n    }\n\n\n\tfunction updateweights(uint _data) public returns(bool sufficient) {\n        ID_newestweights=ID_newestweights+1;\n        allweights[ID_newestweights]=Weights(\n            {\n                ID:ID_newestweights,\n                initiator:msg.sender,\n                data:_data\n            }\n        );\n        return true;\n\t}\n\n\tfunction getweights() public view returns(uint){\n\t\treturn allweights[ID_newestweights].data;\n\t}\n}\n",
  "sourcePath": "/home/ubuntu/workspace/truffle/blockchain-tests/truffleproject/contracts/FL_simulation.sol",
  "compiler": {
    "name": "solc",
    "version": "0.7.6+commit.7338295f.Emscripten.clang"
  },
  "schemaVersion": "3.3.4",
  "updatedAt": "2021-03-12T15:40:29.745Z",
  "networkType": "ethereum",
  "devdoc": {
    "kind": "dev",
    "methods": {},
    "version": 1
  },
  "userdoc": {
    "kind": "user",
    "methods": {},
    "version": 1
  }
}