{
  "contractName": "FL_simulation",
  "abi": [
    {
      "constant": true,
      "inputs": [],
      "name": "ID_newestweights",
      "outputs": [
        {
          "internalType": "uint256",
          "name": "",
          "type": "uint256"
        }
      ],
      "payable": false,
      "stateMutability": "view",
      "type": "function"
    },
    {
      "constant": true,
      "inputs": [
        {
          "internalType": "uint256",
          "name": "",
          "type": "uint256"
        }
      ],
      "name": "allweights",
      "outputs": [
        {
          "internalType": "uint256",
          "name": "ID",
          "type": "uint256"
        },
        {
          "internalType": "address",
          "name": "initiator",
          "type": "address"
        },
        {
          "internalType": "uint256",
          "name": "data",
          "type": "uint256"
        }
      ],
      "payable": false,
      "stateMutability": "view",
      "type": "function"
    },
    {
      "constant": false,
      "inputs": [
        {
          "internalType": "uint256",
          "name": "_data",
          "type": "uint256"
        }
      ],
      "name": "updateweights",
      "outputs": [
        {
          "internalType": "bool",
          "name": "sufficient",
          "type": "bool"
        }
      ],
      "payable": false,
      "stateMutability": "nonpayable",
      "type": "function"
    },
    {
      "constant": true,
      "inputs": [],
      "name": "getweights",
      "outputs": [
        {
          "internalType": "uint256",
          "name": "",
          "type": "uint256"
        }
      ],
      "payable": false,
      "stateMutability": "view",
      "type": "function"
    }
  ],
  "bytecode": "0x608060405234801561001057600080fd5b506102ce806100206000396000f3fe608060405234801561001057600080fd5b506004361061004c5760003560e01c806306779ab514610051578063187587131461006f5780631922b23d1461008d5780632b81704e146100d3575b600080fd5b61005961014f565b6040518082815260200191505060405180910390f35b610077610177565b6040518082815260200191505060405180910390f35b6100b9600480360360208110156100a357600080fd5b810190808035906020019092919050505061017d565b604051808215151515815260200191505060405180910390f35b6100ff600480360360208110156100e957600080fd5b8101908080359060200190929190505050610242565b604051808481526020018373ffffffffffffffffffffffffffffffffffffffff1673ffffffffffffffffffffffffffffffffffffffff168152602001828152602001935050505060405180910390f35b600060016000548154811061016057fe5b906000526020600020906003020160020154905090565b60005481565b6000600160005401600081905550604051806060016040528060005481526020013373ffffffffffffffffffffffffffffffffffffffff168152602001838152506001600054815481106101cd57fe5b90600052602060002090600302016000820151816000015560208201518160010160006101000a81548173ffffffffffffffffffffffffffffffffffffffff021916908373ffffffffffffffffffffffffffffffffffffffff1602179055506040820151816002015590505060019050919050565b6001818154811061024f57fe5b90600052602060002090600302016000915090508060000154908060010160009054906101000a900473ffffffffffffffffffffffffffffffffffffffff1690806002015490508356fea265627a7a72315820535138e99fa121d539be21c1016d358175e58d2d8125e0e86541b11a893818aa64736f6c634300050c0032",
  "source": "\npragma solidity >=0.4.17 <0.7.0;\n\n\n\ncontract FL_simulation {\n    \n    struct Weights{\n        uint ID;\n        address initiator;\n        uint data;\n    }\n\n    uint public ID_newestweights;\n    \n    Weights[] public allweights;\n\n\n\tfunction updateweights(uint _data) public returns(bool sufficient) {\n        ID_newestweights=ID_newestweights+1;\n        allweights[ID_newestweights]=Weights(\n            {\n                ID:ID_newestweights,\n                initiator:msg.sender,\n                data:_data\n            }\n        );\n        return true;\n\t}\n\n\tfunction getweights() public view returns(uint){\n\t\treturn allweights[ID_newestweights].data;\n\t}\n}\n",
  "sourcePath": "/home/debian/ethereum-tests/truffleproject/contracts/FL_simulation.sol",
  "compiler": {
    "name": "solc",
    "version": "0.5.12+commit.7709ece9.Emscripten.clang"
  },
  "schemaVersion": "3.0.18",
  "updatedAt": "2021-03-07T10:35:52.732Z",
  "devdoc": {
    "methods": {}
  },
  "userdoc": {
    "methods": {}
  }
}